:100000000C9438000C9442000C9442000C94420072
:100010000C9442000C9442000C9442000C94420058
:100020000C9442000C9442000C9442000C94420048
:100030000C9442000C9442000C9442000C94420038
:100040000C9442000C9442000C9442000C94420028
:100050000C9442000C9442000C9442000C94420018
:100060000C9442000C9442000C9442000C94420008
:1000700011241FBECFEFD4E0DEBFCDBF0E944400ED
:100080000C945F000C9400008AB382608ABB8BB32F
:1000900082608BBB2FEF89E698E121508040904031
:1000A000E1F700C000008BB31BBA2FEF89E698E19F
:1000B000215080409040E1F700C00000E8CFF89464
:0200C000FFCF70
:00000001FF
